:100000000C9434000C94A2000C94A2000C94A20056
:100010000C94A2000C94A2000C94A2000C94A200D8
:100020000C94A2000C94A2000C94A2000C94A200C8
:100030000C94A2000C94A2000C94A2000C94A200B8
:100040000C94A2000C94A2000C94A2000C94A200A8
:100050000C94A2000C94A2000C94A2000C94A20098
:100060000C94A2000C94A20011241FBECFEFD8E084
:10007000DEBFCDBF0E9446000C948E00F894FFCFE7
:0C00800068656C6C6F20776F726C640018
:10008C00CF93DF93CDB7DEB72F970FB6F894DEBFC3
:10009C000FBECDBF2CE030E040E850E060E0CE0178
:1000AC0001960E9475008FEF84B9CE0101960E94D3
:1000BC00990015B82FEF89E698E1215080409040C7
:1000CC00E1F700C000008FEF85B92FEF89E698E1CA
:0E00DC00215080409040E1F700C00000EACFC4
:1000EA00CF92DF92EF926A01E62EDC01280F391FC8
:1000FA00A217B30751F0F6014491E7FC40814D93F2
:10010A004FEFC41AD40AE40AF3CFEF90DF90CF90EE
:02011A00089546
:10011C00EC010E94A7000E94A600CE010E94A8003C
:06012C00CE010E94A400B8
:0C013200FC01808181110E949F00089553
:06013E008091C000FDCF1E
:040144000C94000017
:040148000E943E00D3
:02014C00089514
:02014E00089512
:02015000089510
:00000001FF
