:1000000039C000000C94BD0F0C94BD0F0C94BD0FB3
:100010000C94BD0F0C94BD0F0C94BD0F0C94BD0F30
:100020000C94BD0F0C94BD0F0C94BD0F0C94BD0F20
:100030000C94BD0F0C94BD0F0C94BD0F0C94BD0F10
:100040000C94BD0F0C94BD0F0C94C0110C94BD0FFB
:100050000C94BD0F0C94BD0F0C94BD0F0C94BD0FF0
:100060000C94BD0F0C94BD0F010003C68003C603A2
:10007000C700247A11241FBECFEFD8E0DEBFCDBF6A
:10008000E8E6F0E040E017C0B591A59135912591E3
:10009000059107FD0CC095918591EF01F92FE82F8F
:1000A00005900D92A217B307D9F7FE0104C01D9267
:1000B000A217B307E1F7E437F40731F70AD002C01B
:0400C000F894FFCFE2
:0E00C400EC017CD078D0CE0177D0CE0176D082
:1000D200F3D0F0D0DBD081E4C82E84E2D82E80E0C9
:1000E200E82EC2E9D3E03E0120E8822E14C0882324
:1000F20029F1833039F485E293E893D061D080E02E
:1001020090E094D09FEF23EC89E091502040804012
:10011200E1F700C000008091C603843009F43CC0BE
:1001220030F3853009F440C0863061F782E690E111
:1001320078D046D080E098E179D0E4CFDBD011D1FD
:1001420049D176D1809191038F93809190038F93BF
:1001520080918F038F9380918E038F9380918D0373
:100162008F9380918C038F9380918B038F938091D7
:100172008A038F93EF92DF92CF92DF93CF937DD159
:10018200882DB3018AD18DB79EB70D960FB6F8941C
:100192009EBF0FBE8DBFB6CF89E891E442D010D08A
:1001A20080E098E043D0AECF84EC90E23AD008D021
:0801B20080E090E13BD0A6CFF4
:0201BA000895A6
:0201BC000895A4
:0201BE0080DFE0
:0201C0000895A0
:1001C2000F93CF93DF9300D00F92CDB7DEB780911C
:1001D200860390918703809383039093840389839A
:1001E2009A8385E08B8300E020E043E0BE016F5FED
:1001F2007F4F80E46AD1892B41F480E00F900F9009
:100202000F90DF91CF910F9108956AE174E280E03F
:1002120044D182E00F900F900F90DF91CF910F9118
:0202220008953D
:0A02240090938703809386030895EA
:10022E000F93CF93DF9300D00F92CDB7DEB78F69C8
:10023E0091609093840380938303898380918403D8
:10024E008A831B8200E020E043E0BE016F5F7F4F98
:10025E0080E435D1892B41F480E00F900F900F9000
:10026E00DF91CF910F9108956AE174E280E00FD192
:10027E0082E00F900F900F90DF91CF910F91089524
:10028E0061E082E0A1D185E293E8909387038093A9
:10029E00860390DF882311F082E0089580E098E1D4
:0802AE00BFDF8111F9CF0895B3
:0402B600259A0895E8
:1002BA0087E690E09093C5008093C400E1ECF0E0FB
:1002CA00808188608083808180618083808180686A
:1002DA008083E2ECF0E080818460808378941092DD
:0C02EA008203109200011092810308951D
:1002F6000F9382E08093830300E021E041E063E80E
:1003060073E080E4E0D0892B39F06AE174E280E0A2
:10031600C2D082E00F91089520E042E063E873E0E6
:1003260080E47BD1892BA9F4809183039091840387
:10033600969587959695879596958795880F991F93
:10034600880F991F90938B0380938A0380E00F9107
:0E03560008956FE274E280E09ED081E0DBCF7C
:100364000F932DDF83E08093830300E021E041E0DD
:1003740063E873E080E4A8D0892B39F06AE174E281
:1003840080E08AD082E00F91089520E042E063E8A3
:1003940073E080E443D1892BB1F48091830390917D
:1003A40084039C01220F331F880F991F880F991F04
:1003B400880F991F820F931F90939103809390034A
:1003C40080E00F9108956FE274E280E065D081E0EF
:0203D400DACF7E
:1003D6000F93F4DE84E08093830300E021E041E0A4
:1003E60063E873E080E46FD0892B39F06AE174E248
:1003F60080E051D082E00F91089520E042E063E86A
:1004060073E080E40AD1892B59F48091830390919B
:10041600840390938F0380938E0380E00F91089559
:0C0426006FE274E280E037D081E0E5CFA7
:100432000F9381E08093830300E021E041E063E8D1
:1004420073E080E442D0892B19F082E00F91089585
:1004520020E042E063E873E080E4E1D0892B59F4C4
:10046200809183039091840390938D0380938C03F6
:0A04720080E00F91089581E0E9CFCA
:10047C00A0E0B0E0E3E4F2E0B0C19E01265F3F4FA4
:10048C004F81588569858D819E8171D1E2E08AC149
:10049C009B01482FF901949147FD9081992379F0A4
:1004AC002F5F3F4F4F4F8091C00085FFFCCF909343
:1004BC00C600F901949147FD90819111F1CF0895F7
:1004CC000F9394EA9093BC009091BC0097FFFCCFE3
:1004DC009091B900987F983071F09091B900987F05
:1004EC00903149F09091B900987FA92FB0E019F0A4
:1004FC00CD010F910895880F8093BB0084E8809301
:10050C00BC008091BC0087FFFCCF8091B900887F34
:10051C00883159F08091B900887F803431F0809116
:10052C00B900887FA82FB0E019F701112DC0842FD6
:10053C0090E0AC0141505109E8F0FB01E80FF91FC4
:10054C0034E8319780818093BB003093BC0080915C
:10055C00BC0087FFFCCF8091B900887F883239F0CE
:10056C009091B900987FA92FB0E009F0C1CF41500C
:10057C00510938F7222319F084E98093BC00A0E0DC
:10058C00B0E0CD010F9108954423A1F3FB01CB0101
:10059C00840F911DAC0134E881918093BB003093A2
:1005AC00BC008091BC0087FFFCCF8091B900887F94
:1005BC00883239F09091B900987FA92FB0E009F0FA
:0A05CC0097CFE417F50741F7D5CFEC
:1005D60097B1906397B998B1662379F0906398B90B
:1005E60097B19F7C97B9813079F0813090F0823055
:1005F60079F48CE08093B80008959F7C98B997B100
:100606009F7C97B9813089F788E18093B800089577
:0A061600089588E48093B800089569
:1006200094EA9093BC009091BC0097FFFCCF90910E
:10063000B900987F983069F09091B900987F903117
:1006400041F09091B900987FE92FF0E011F0CF01CF
:100650000895880F81608093BB0084E88093BC007C
:100660008091BC0087FFFCCF8091B900887F8831E2
:1006700059F08091B900887F803431F08091B900C1
:10068000887FE82FF0E019F7211131C04150B1F017
:1006900094ECFB01E40FF11D9093BC008091BC0031
:1006A00087FFFCCF8091B900887F803509F458C05E
:1006B0008091B900887F8083415059F784E8809306
:1006C000BC008091BC0087FFFCCF8091B900887F7F
:1006D000883509F44BC08091B900887FFB01808385
:1006E00084E98093BC00E0E0F0E0CF010895242F7E
:1006F00030E0F90131971E161F06E4F440E080E077
:1007000090E054ECDB01A80FB91F5093BC0080911E
:10071000BC0087FFFCCF8091B900887F803519F13C
:100720008091B900887F8C934F5F842F90E08E1763
:100730009F0744F321503109FB01E20FF31F84E8C6
:100740008093BC008091BC0087FFFCCF8091B900F2
:10075000887F883571F08091B900887F8083C0CF11
:100760008091BB00A8CF8091BB00DDCF8091BB0002
:0A077000B5CF8091BB008083B3CFAA
:10077A000F931F9389019A01462F6FEF7FE73AD0B3
:06078A001F910F9108957C
:100790002A88398848885F846E847D848C849B8411
:1007A000AA84B984C884DF80EE80FD800C811B811F
:1007B000AA81B981CE0FD11D0FB6F894DEBF0FBE4E
:0607C000CDBFED0108951C
:1007C6002F923F924F925F926F927F928F929F925B
:1007D600AF92BF92CF92DF92EF92FF920F931F9349
:1007E600CF93DF93CDB7DEB7CA1BDB0B0FB6F894FA
:0807F600DEBF0FBECDBF099468
:1007FE006F927F928F92EF92FF920F931F93CF93F0
:10080E00DF93CDB7DEB761970FB6F894DEBF0FBE9C
:10081E00CDBFFE01319651E1DF011D925A95E9F7E8
:10082E00A2E0B1E0BA83A9839C838B8377FF09C0D2
:10083E008FE490E09093C5038093C4038FEF9FEFF6
:10084E0018C03901842E7C01615071097F836E833B
:10085E009801682DA301CF011CD0488559852E81A2
:10086E003F814217530708F49A01F701E20FF31F75
:10087E00108261960FB6F894DEBF0FBECDBFDF912A
:10088E00CF911F910F91FF90EF908F907F906F906F
:02089E000895BB
:1008A000A2E0B0E0E5E5F4E09CCF8C013A83298337
:1008B0009E012F5F3F4F09D0F801208124FF02C025
:0A08C0008FEF9FEF2296E4E071CF66
:1008CA00A3EAB0E0EAE6F4E079CF4C015901C75651
:1008DA00DF4F488359836A83C959D040212C312C70
:1008EA006E012BE8C20ED11C85E2782E260130E873
:1008FA00632ECE018D569F4FC456DF4F998388834E
:10090A00CC59D0409C0140E8CF55DF4F288339832A
:10091A004A83C15AD040C756DF4F4881C959D0408F
:10092A00C656DF4F5881CA59D040C556DF4F688135
:10093A00CB59D040FA01849167FD8081882309F45C
:10094A00B3C3CF57DF4F19821882C158D0408FEFF7
:10095A009FEFCD57DF4F99838883C358D040CB5739
:10096A00DF4F19821882C558D040A1E0B0E0AC0F21
:10097A00BD1FC957DF4FB983A883C758D040E0E8E5
:10098A00F0E0C757DF4FF983E883C958D040CA015E
:10099A00A62FE12CF12CFC012491A7FD2081211125
:1009AA001AC0E114F104F9F09701C401FDD4C75645
:1009BA00DF4F88819981AA81C959D0408E0D9F1D28
:1009CA00A11DF7FCAA95C756DF4F88839983AA838E
:1009DA00C959D04008C00196A11D253211F3FFEF75
:1009EA00EF1AFF0AD8CFC756DF4F88819981AA81AB
:1009FA00C959D040FC012491A7FD2081253209F074
:100A0A0041C39C014A2F2F5F3F4F4F4FC256DF4FC2
:100A1A00288339834A83CE59D040C756DF4F28836B
:100A2A0039834A83C959D040C756DF4F8881998193
:100A3A00AA81C959D040FC012491A7FD20812B32FB
:100A4A0041F4CF57DF4F28813981C158D040246003
:100A5A000BC02C32CCF02D3259F5CF57DF4F2881FD
:100A6A003981C158D0402160CF57DF4F398328835D
:100A7A00C158D0400196A11DC756DF4F888399837C
:100A8A00AA83C959D040D0CF203241F4CF57DF4F83
:100A9A0028813981C158D0402860E6CF233291F4A9
:100AAA00CF57DF4F28813981C158D0402061DCCF30
:100ABA00203341F4CF57DF4F28813981C158D040C4
:100ACA002260D2CF2A3299F50196A11DC756DF4F6F
:100ADA0088839983AA83C959D040D501ED91FC91A5
:100AEA001197CF0102968D939C9380819181CB5768
:100AFA00DF4F99838883C558D04097FF3DC0CF57B1
:100B0A00DF4F28813981C158D040B1E02B27CF5718
:100B1A00DF4F39832883C158D04091958195910937
:100B2A00CB57DF4F99838883C558D04025C0BC0175
:100B3A008A2F78D3CB57DF4F99838883C558D04003
:100B4A00C756DF4F288139814A81C959D040F901F6
:100B5A00849147FD8081082E000C990BC0970A9753
:100B6A0058F42F5F3F4F4F4FC756DF4F28833983C3
:100B7A004A83C959D040E4CFCF57DF4F8881998142
:100B8A00C158D04080FF07C08D7FCF57DF4F998370
:100B9A008883C158D040C756DF4F88819981AA817E
:100BAA00C959D040FC012491A7FD20812E3209F0B9
:100BBA0057C0CD57DF4F19821882C358D0409C01C5
:100BCA004A2F2F5F3F4F4F4FC756DF4F2883398336
:100BDA004A83C959D040F901549147FD50815A328C
:100BEA00D1F40296A11DC756DF4F88839983AA8341
:100BFA00C959D040D501ED91FC911197CF010296C8
:100C0A008D939C9380819181CD57DF4F99838883FF
:100C1A00C358D04025C0842FB90104D3CD57DF4F24
:100C2A0099838883C358D040C756DF4F28813981BA
:100C3A004A81C959D040F901849147FD8081082E23
:100C4A00000C990BC0970A9758F42F5F3F4F4F4FEC
:100C5A00C756DF4F288339834A83C959D040E4CF26
:100C6A00CE0187569F4F51D3182FC756DF4F288181
:100C7A00C959D040C656DF4F8881CA59D040C55697
:100C8A00DF4F9881CB59D040E22FF82F849197FDFE
:100C9A008081082E000C990B30D38936910509F40E
:100CAA0058C0B4F48336910509F456C144F4853228
:100CBA00910509F491C18136910529F1A3C18436C0
:100CCA00910509F446C0883691050CF41FC19AC1F2
:100CDA008037910509F4C2C04CF48E36910509F4A7
:100CEA000CC18F36910509F476C08CC18537910500
:100CFA0009F450C08837910509F48EC083379105ED
:100D0A0009F080C148C1612F70E0A501C601D2D2A5
:100D1A00892B09F4A7C1C756DF4F88819981AA8117
:100D2A00C959D0409C014A2F2F5F3F4F4F4FC7569A
:100D3A00DF4F288339834A83C959D040FC01249163
:100D4A00A7FD2081A601BE016F577F4FC401D2D2F1
:100D5A0086C1612F70E0950141E050E0C601A9D13A
:100D6A00892B09F47FC1C756DF4F88819981AA81EF
:100D7A00C959D0400196A11DC756DF4F8883998370
:100D8A00AA83C959D040A601BE016F577F4FC4013B
:100D9A003ED365C1612F70E0950140E050E0C60185
:100DAA0088D1892B09F45EC1C756DF4F88819981A2
:100DBA00AA81C959D0400196A11DC756DF4F888321
:100DCA009983AA83C959D040A601BE016F577F4FA4
:100DDA00C401D3D344C1612F70E0950140E050E0D3
:100DEA00C60167D1892B09F43DC1C756DF4F8881F7
:100DFA009981AA81C959D0400196A11DC756DF4FD2
:100E0A0088839983AA83C959D040A601BE016F5726
:100E1A007F4FC40106D423C1612F70E0950140E0E1
:100E2A0050E0C60146D1892B09F41CC1C756DF4FD1
:100E3A0088819981AA81C959D0409C014A2F2F5F84
:100E4A003F4F4F4FC756DF4F288339834A83C959CB
:100E5A00D040FC012491A7FD208148C0950140E0C3
:100E6A0050E060EF70E0C60124D1892B09F4FAC082
:100E7A00C756DF4F88819981AA81C959D040019606
:100E8A00A11DC756DF4F88839983AA83C959D040C9
:100E9A0086E02EE534E240E0F901DE01AD56BF4FAF
:100EAA00742F25D4D6012C9111963C911197129644
:100EBA004C91129713965C91139714966C91149710
:100ECA0015967C91159716968C91169717969C9164
:100EDA00A0E01AD451F400E010E0CF55DF4F28818A
:100EEA0039814A81C15AD040B5C028E7A601BE015E
:100EFA006F577F4FC40114D4B2C0612F70E09501BF
:100F0A00A1014E0D5F1DC60144D5ACC0612F70E032
:100F1A00A501C601CFD1892B09F4A4C0C756DF4F5A
:100F2A0088819981AA81C959D0409C014A2F2F5F93
:100F3A003F4F4F4FC756DF4F288339834A83C959DA
:100F4A00D040FC012491A7FD2081A601BE016F5764
:100F5A007F4FC401CFD183C0103809F083C0C75670
:100F6A00DF4F88819981AA81C959D0400196A11D74
:100F7A00C756DF4F88839983AA83C959D040D501C0
:100F8A00ED91FC911197CF0102968D939C938081EC
:100F9A00F60180835BC0103809F064C0C756DF4F82
:100FAA0088819981AA81C959D0400196A11DC75645
:100FBA00DF4F88839983AA83C959D040D501ED911F
:100FCA00FC911197CF0103968D939C9320813181D7
:100FDA00428100E010E03EC0103809F043C0C75615
:100FEA00DF4F88819981AA81C959D0400196A11DF4
:100FFA00C756DF4F88839983AA83C959D040F6011F
:10100A00708224C0D6017C92C256DF4F2881398172
:10101A004A81CE59D040C756DF4F288339834A8345
:10102A00C959D040CF57DF4F19821882C158D040D2
:10103A00CB57DF4F19821882C558D0408FEF9FEFE8
:10104A00CD57DF4F99838883C358D04001E010E021
:10105A00462D9201BE016F577F4FC40106D58E0DF2
:10106A009F1D11C0C756DF4F88819981AA81C9592E
:10107A00D0400196A11DC756DF4F88839983AA8362
:10108A00C959D040C7017101E80EF91EE214F304F0
:10109A004CF48FE490E09093C5038093C4038FEFE0
:1010AA009FEF03C0170137CCC101CD55DF4FE2E1F5
:0210BA006ACBFF
:1010BC000F931F93CF93DF93FC01D901683871050F
:1010CC0031F194F461387105B1F12CF4603871058B
:1010DC0009F478C09FC06238710509F459C06438AE
:1010EC00710509F46FC096C0603A710509F448C0E7
:1010FC002CF46039710509F44BC08CC0603C71054F
:10110C0009F476C0603F710509F472C083C0CD91BB
:10111C00DC911197CE0102968D939C93452B39F05F
:10112C009881892F880F880B908381835BC088817D
:10113C008083118268C0CD91DC911197CE01049609
:10114C008D939C93452B99F088819981AA81BB81C1
:10115C00AC01BD01770F440B542FBA0180839183EE
:10116C00A283B383448345834683478328C0088185
:10117C0019812A813B81008311832283338345C0EB
:10118C00CD91DC911197CE0102968D939C9323C047
:10119C00CD91DC911197CE0108968D939C9378811B
:1011AC0069815A814B813C812D819E818F81708315
:1011BC00618352834383348325839683878381E0C1
:1011CC0090E02AC0CD91DC911197CE0102968D93BF
:1011DC009C93452BA1F099812881892F880F880B2E
:1011EC002083918382838383848385838683E6CF64
:1011FC00CD91DC911197CE0102968D939C93088131
:10120C001981008311831282138214821582168233
:10121C001782D5CF80E090E0DF91CF911F910F9195
:02122C00089523
:10122E00CF939B01482FF901849147FD8081803235
:10123E00C9F1682F082E000C770B695071096530C3
:10124E00710580F18B3249F5A0E0B0E02F5F3F4F82
:10125E004F4F02C0A0E0B0E080E090E0CAE0F9019C
:10126E00649147FD6081062E000C770B6053710967
:10127E006A30710560F4C89FF001C99FF00D11240A
:10128E002F5F3F4F4F4FCF01861B970BE8CFAB2BF6
:10129E0069F491958195910909C08D32D9F6A1E035
:1012AE00B0E0D4CF2F5F3F4F4F4FBDCFCF910895BA
:1012BE00FA0160387105CCF0623871051CF06338A4
:1012CE00710599F4A081B1819D012C5F3F4F31834F
:1012DE0020834D915D916D917C91FC0140835183F2
:1012EE006283738381E090E0089580E090E008953A
:0612FE0080E090E008957D
:101304009C01215431092A31310508F48062089581
:10131400CF92DF92EF92DC0190E0292F30E0220F90
:10132400331F6901032E000CEE086E2DA6014C59E3
:101334005B4D6F4F6A01E62EFA018491E7FC8081D0
:1013440081110DC02F5F3F4F032E000C440B2C590D
:101354003B4D4F4FF901849147FD808124C0CD90CE
:10136400DD90EC901297F6014491E7FC40818413E0
:1013740015C02F5F3F4F032E000C440B2C593B4DDF
:101384004F4FF901949147FD90815FEFC51AD50A3B
:10139400E50ACD92DD92EC92129701C09F5F9B30DB
:0E13A40008F4BBCF892FEF90DF90CF90089513
:1013B2006F927F928F92CF92DF92EF920F931F9351
:1013C200CF93DF938C016A01E62EE9013A01862E62
:1013D200620E731E811C37FD8A94C614D704E8047A
:1013E20071F0F6018491E7FC8081B801082E000CAF
:1013F200990BA1D38FEFC81AD80AE80AEECFCE0113
:10140200DF91CF911F910F91EF90DF90CF908F904E
:061412007F906F90089529
:10141800ADE0B0E0E1E1FAE0D2C99A8789877C8340
:101428006B83FA01DB011296CD90DC90139714962A
:101438008D919C9115979E838D83ED90FC901197CB
:10144800FA82E98216960D90BC91A02DB887AF83D9
:1014580020803180428053806480758086809780A8
:101468008101B42DF52DE62D7B868C869D86910114
:10147800A201B301C401A0E048D144F4A2D3890178
:10148800B42FF52FE62F7B878C879D87D7FC04C068
:10149800E894E1F8FA82E9829101A201B301C4015A
:1014A800A0E0ED80FE8031D11CF0898182FF04C06C
:1014B80081E0E81AF10805C083FF03C091E0E91A4A
:1014C800F108CE0101965C018AE0C82ED12C2B2FA1
:1014D8003F2F4E2F5B856C857D858B819C8181D3C9
:1014E800FC019101A201B301C401A0E00ED11CF0DE
:1014F800898182FF11C031970F8118850E0F1F1F38
:101508009101A201B301C401A0E0FFD014F08BE265
:1015180001C08DE2D80108C083FF07C03197AF81B1
:10152800B885AE0FBF1F80E28C93E980FA80AB814B
:10153800BC8118962D913C911997215031092E1B89
:101548003F0B8F819885E80FF91FAF0160E80D8187
:101558001E8189859A85E7D39C01A985BA858D91D5
:101568009C9190FF07C0EB81FC8182819381821757
:0C15780093070CF4C9012D96E2E106C9AE
:10158400A2E0B0E0E7ECFAE01CC93C014B01FA012F
:10159400DB0112962D913C91139714964D905C901B
:1015A40015978D919C9111979A83898316962D9006
:1015B4003C90179737FD03C08D7F9A838983008100
:1015C4001181228133814481558166817781FE01B5
:1015D40031965F018AE0C82ED12C7201C40103D375
:1015E400E980FA80D40118962D913C9119972150E5
:1015F4003109281B390B820D931DAC0160E882016F
:10160400C30193D39C01F3018081918190FF08C0B1
:10161400D40112968D919C911397821793070CF421
:08162400C9012296E2E1B2C8FF
:10162C00A2E0B0E0EBE1FBE0C8C81C014B01FA0101
:10163C00DB0112962D913C91139714964D905C9072
:10164C0015978D919C9111979A83898316966D901D
:10165C007C90179737FD03C08D7F9A838983008117
:10166C001181228133814481558166817781FE010C
:10167C0031965F0188E0C82ED12C7201C401AFD223
:10168C00298124FF06C00197F301E80FF91F20E31D
:10169C002083298123FF06C00197F301E80FF91F6E
:1016AC0020E22083E980FA80D40118962D913C9198
:1016BC00199721503109281B390B860D971DAC0148
:1016CC0060E88201C1012DD39C01F10180819181DF
:1016DC0090FF08C0D40112968D919C91139782179C
:0C16EC0093070CF4C9012296E2E14CC8FF
:1016F800992777FD05C005900D920197E1F70895A8
:0A17080001900D920197E1F708959A
:101712000024A7FD00942A173005400550056005F6
:08172200700580059005089593
:10172A00A4E1B0E0EAE9FBE049C898878F837A83AD
:10173A0069835C8B4B8B122FDB011296ED91FC9126
:10174A00139714962D913C9115973E832D83ED9016
:10175A00FC90119716962D903C901797F7FD03C0B1
:10176A00E894E1F802C0E1E0F0E0C701807199274E
:10177A009A878987E4FE1EC0AB89BC892C91119691
:10178A003C91119712964C91129713965C9113976C
:10179A0014966C91149715967C91159716968C91C0
:1017AA00169717969C91A0E0AFDF21F08D819E815C
:1017BA00029702C08D819E819701287033273C874A
:1017CA002B87E3FC0197AB89BC894C9011965C90FE
:1017DA00119712966C90129713967C901397149601
:1017EA008C90149715969C9015971696AC90169710
:1017FA001796BC90A981BA811896CD90DC9019975A
:10180A00B1E0CB1AD108D101AC0DBD1D1C929C834D
:10181A008B839F01281B390B3E872D87C701827056
:10182A009927988B8F87812F012E000C990BDC0149
:10183A00A154B109BA8BA98B32E0C316D10434F48E
:10184A0089859A85892B09F049C06FC09201A30145
:10185A00B401C501A0E058DF71F1B1E0CB1AD1089B
:10186A00C2018F7099278A30910514F4C09602C07C
:10187A00895A9F4FE989FA897A9740F49C01206234
:10188A00215631092A31310508F4CED2F101EC0D85
:10189A00FD1D80832B813C81215031093C832B83A0
:1018AA009201A301B401C50104E0C9D229013A0198
:1018BA004B015C01C1CF8D859E85AB81BC818A0FAE
:1018CA009B1F181619064CF21A161B060CF0B8CFF5
:1018DA00EF85F889EF2B09F0C0CFB2CFAB89BC896D
:1018EA002C9111963C91119712964C91129713963E
:1018FA005C91139714966C91149715967C91159791
:10190A0016968C91169717969C91A0E0FDDE69F0C9
:10191A00F101EC0DFD1D31971083B2E0CB1AD1080D
:10192A00F101EC0DFD1D80E38083EB85FC85EF2B37
:10193A0041F0F1E0CF1AD108F101EC0DFD1D80E272
:10194A008083A981BA8118962D913C9119972150CB
:10195A0031092C193D09C20CD31CA60160E80D817E
:10196A001E818F819885DED19C01EF81F885808167
:10197A00918190FF09C0A981BA8112968D919C919B
:10198A001397821793070CF4C9016496E2E10C9449
:02199A00C80380
:10199C00CF93DF93DC01F90164387105D9F164F45C
:1019AC006138710521F16238710509F440C0603865
:1019BC00710509F054C02EC060397105C1F184F471
:1019CC006838710509F04BC0C081D181CE010296F7
:1019DC0091838083E881F981ED93FC9340833CC033
:1019EC00603A7105B9F0603C7105A1F038C0C08156
:1019FC00D181CE01029691838083E881F981ED93A8
:101A0C00FC93052E000C660B770B4083518362838D
:101A1C00738322C0C081D181CE01029691838083D1
:101A2C00E881F981ED93FC935183408315C0C0810B
:101A3C00D181CE01029691838083E881F981ED9367
:101A4C00FC9351834083852F880F880B828383837B
:101A5C00848385838683878381E090E002C080E065
:081A6C0090E0DF91CF91089595
:101A74002F923F924F926F927F928F92AF92BF922A
:101A8400CF92DF92EF92FF920F931F93CF93DF9346
:101A9400CDB7DEB727970FB6F894DEBF0FBECDBF24
:101AA4006C017B013901842E980187E5282E84E29C
:101AB400382E80E0482E87E0F101AE014F5F5F4F82
:101AC400DA01742D17DEF70102811381A480B58039
:101AD400E080F18061147104810419F43A01F0E8A2
:101AE4008F2E2115310521F4882DB301C7D19C0116
:101AF40017FD04C00217130708F498018501682D27
:101B0400A301C60112D127960FB6F894DEBF0FBE0B
:101B1400CDBFDF91CF911F910F91FF90EF90DF9098
:101B2400CF90BF90AF908F907F906F904F903F90E9
:041B34002F90089551
:101B38000F931F93CF93DF93DB012D913C91119766
:101B480030FF25C017964D915C91189715962D91E9
:101B58003C9116974217530778F41296ED91FC9131
:101B68001397808312962D913C9113972F5F3F4FC7
:101B780013963C932E93129717962D913C91189794
:101B88002F5F3F4F18963C932E93179715C01D96BD
:101B9800ED91FC911E97309719F48FEF9FEF0CC0D1
:101BA8008B01EC010995892BC1F7F8018781908594
:101BB800019690878783CE01DF91CF911F910F9176
:021BC80008957E
:101BCA0060957095809590953095409550952195A2
:101BDA003F4F4F4F5F4F6F4F7F4F8F4F9F4F08952C
:101BEA00A2E1B0E0EBEFFDE00C94E303FC010A8B09
:101BFA001B832C83732E642E552E462E7D83CC8612
:101C0A00D886BF82AE82868197819B878A87D501D3
:101C1A004D915C91228133818085918501971C01C8
:101C2A0037FF02C021E030E0EA85FB85E80FF91FA3
:101C3A0010824701E1E0F0E0FA83E983C9018E19D5
:101C4A009F099E878D87DA01A270BB27B88BAF8761
:101C5A00B885BB0FBB0BB98B1214130474F0A9819E
:101C6A00BA81AB2B09F059C0AE81BF818D919C918D
:101C7A0011978F7E8D939C9350C02A893B814C810A
:101C8A00572D662D752D842D9D81A0E03DDDA1F196
:101C9A00E1E02E1A3108FC85F987AF2EB884C9888D
:101CAA00DC2CEC2CFC2C0C2D1C2D2A893B814C8124
:101CBA00572D662D752D842D9D81F3D0C901298359
:101CCA009A83EA85FB85E20DF31D805D808381E0BE
:101CDA00881A91082A893B814C81572D662D752DCA
:101CEA00842D9D81E0D02A8B3B834C83752E662EF2
:101CFA00572E482E9D83B0CF8D859E85880D991DC0
:101D0A00181619062CF2181419040CF0A8CFEF852E
:101D1A00F889EF2B09F0BCCFA2CFC1016296E2E1AC
:041D2A000C94C8034A
:101D2E002F923F924F926F927F928F92AF92BF926D
:101D3E00CF92DF92EF92FF920F931F93CF93DF9389
:101D4E00CDB7DEB766970FB6F894DEBF0FBECDBF28
:101D5E005C013A01862E6901C701817099279C8B1F
:101D6E008B8BE0FC1CC020173107CCF47801EC18EB
:101D7E00FD08FE8AED8AA70191E1E916F10410F043
:101D8E0040E150E060E270E0CE0101969A8B898BC3
:101D9E0093D089899A891C0120E8422E0AC09601A7
:101DAE00682DA301C501FEDAC016D106FCF2C601EC
:101DBE0022C090E1E916F10450F020E130E0642DEC
:101DCE00A101C501EFDA80E1E81AF108F2CF2D8901
:101DDE003E892F70332789899A89AC0160E8C50145
:101DEE00E1DA8B899C89892B29F49601682DA30150
:101DFE00C501D8DAC80166960FB6F894DEBF0FBEDD
:101E0E00CDBFDF91CF911F910F91FF90EF90DF909B
:101E1E00CF90BF90AF908F907F906F904F903F90EC
:041E2E002F90089554
:101E32009C01215631092A31310510F48F759927F9
:021E4200089501
:101E440097FB10F8169400080F93083098F0085088
:101E5400232F342F452F562F672F782F892F902D1E
:101E6400F4CF0594979587957795679557954795FA
:0C1E7400379527950A95AAF70F9108955D
:101E8000CF92DF92EF926B01E82EA82FCB01FC01DD
:101E90002491A7FD2081222319F00196A11DF7CFDF
:0C1EA0008C199D09EF90DF90CF90089501
:101EAC00689401C0E8948F929F92CF93DF930ED0E9
:0A1EBC00DF91CF919F908F90089561
:101EC600FC01480F591FE417F50711F06193FBCF8A
:021ED60008956D
:101ED80088249924F401E401B0E49F93AA279A1571
:101EE8008B049C04ED05FE05CF05D007A10798F4E7
:101EF800AD2FDC2FCF2FFE2FE92D982C892E982F70
:101F0800872F762F652F542F432F322F2227B85033
:101F180031F7BF9127C01B2EBF91BB27220F331F5C
:101F2800441F551F661F771F881F991F881C991CFF
:101F3800EE1FFF1FCC1FDD1FAA1FBB1F8A149B04A7
:101F4800EC05FD05CE05DF05A007B10748F08A18A6
:101F58009B08EC09FD09CE09DF09A00BB10B216034
:101F68001A94E1F62EF49401AF01BE01CD01000CE4
:021F78000895CA
:041F7A000C940000C3
:101F7E002573202D2025640A00737461727400533A
:101F8E00544152540A0073746F700053544F500AE8
:101F9E000070617573650050415553450A00636FBB
:101FAE006E6669673100434F4E4649475F310A00FE
:101FBE00636F6E6669673200434F4E4649475F3224
:101FCE000A00636F6E6669673300434F4E4649479A
:101FDE005F330A00636F6E6669673400434F4E4687
:101FEE0049475F340A004641494C0A00696E7075D4
:041FFE00743A200011
:10200200AF92BF92CF92DF92EF920F931F93CF9333
:10201200DF93CDB7DEB7E2970FB6F894DEBF0FBEFF
:10202200CDBF01E011E0680160E8E62E8E2DB60119
:1020320026DF9F938F931F930F938EE79FE1A0E07C
:10204200AF939F938F938E010F5F1F4F1F930F9339
:1020520083D1980140E8F801949147FD90810FB631
:10206200F894DEBF0FBECDBF992391F02F5F3F4F93
:102072004F4F8091C00085FFFCCF9093C600F901BD
:10208200949147FD90812F5F3F4F4F4F9111F1CFB8
:102092008E2DB601F4DE5C018C0127E83FE140E0C1
:1020A2008E2DB60124D1892B21F52EE83FE140E0A7
:1020B20093E58091C00085FFFCCF9093C600F901A3
:1020C200949147FD90812F5F3F4F4F4F9111F1CF78
:1020D20080E0E2960FB6F894DEBF0FBECDBFDF916F
:1020E200CF911F910F91EF90DF90CF90BF90AF9063
:1020F2000895850124E93FE140E08E2DB601F7D035
:10210200892BA9F42AE93FE140E093E58091C000E0
:1021120085FFFCCF9093C600F901949147FD908111
:102122002F5F3F4F4F4F9111F1CF81E0D2CF850109
:102132002FE93FE140E08E2DB601D9D0892BF1F095
:1021420085012CEA3FE140E08E2DB601D0D0892BEB
:1021520051F525EB3FE140E093E48091C00085FF1B
:10216200FCCF9093C600F901949147FD90812F5FB7
:102172003F4F4F4F9111F1CF83E0ABCF26EA3FE1C2
:1021820040E090E58091C00085FFFCCF9093C600AF
:10219200F901949147FD90812F5F3F4F4F4F91116D
:1021A200F1CF82E096CF85012EEB3FE140E08E2D0C
:1021B200B6019DD0892B41F1850120ED3FE140E040
:1021C2008E2DB60194D0892BA1F1850122EE3FE13B
:1021D20040E08E2DB6018BD0892B09F03FC02BEE4B
:1021E2003FE140E093E48091C00085FFFCCF9093F3
:1021F200C600F901949147FD90812F5F3F4F4F4FE9
:102202009111F1CF86E065CF27EC3FE140E093E406
:102212008091C00085FFFCCF9093C600F901949194
:1022220047FD90812F5F3F4F4F4F9111F1CF84E0D7
:1022320050CF29ED3FE140E093E48091C00085FF5B
:10224200FCCF9093C600F901949147FD90812F5FD6
:102252003F4F4F4F9111F1CF85E03BCF25EF3FE14B
:1022620040E096E48091C00085FFFCCF9093C600C9
:10227200F901949147FD90812F5F3F4F4F4F91118C
:10228200F1CF2BEF3FE140E099E68091C00085FF5E
:10229200FCCF9093C600F901949147FD90812F5F86
:1022A2003F4F4F4F9111F1CFF6019491E7FC90818E
:1022B2009923A1F07FEFC71AD70AE70A8091C000DD
:1022C20085FFFCCF9093C600F6019491E7FC9081C4
:1022D2008FEFC81AD80AE80A9111F0CF8091C00096
:0E22E20085FFFCCF8AE08093C60087E0F2CE35
:1022F000CF92DF92EF920F931F936B01E82E01159F
:10230000110519F101501109F6018491E7FC808152
:10231000882399F0F901949147FD9081992369F000
:102320000115110551F0891308C08FEFC81AD80A9A
:10233000E80A2F5F3F4F4F4FE5CF90E0F90124911E
:1023400047FD2081821B910902C080E090E01F912F
:0A2350000F91EF90DF90CF900895F9
:10235A00A0E0B0E0E3EBF1E10C94F3039E01265F09
:10236A003F4F4F81588569858D819E810E94BD03AB
:06237A00E2E00C94D80320
:102380001F920F920FB60F9211242F933F934F93EA
:102390005F936F937F938F939F93AF93BF93EF93CD
:1023A000FF9380918103882381F181E080938103F1
:1023B0008091C6008A30E9F0E091000191E09E0F23
:1023C00090930001F0E0EF5FFE4F808397FD15C012
:1023D000FF91EF91BF91AF919F918F917F916F91FD
:1023E0005F914F913F912F910F900FBE0F901F90D3
:1023F000189580910001882359F303DE8093C6036A
:102400001092000110928103E3CF80E8E1E0F1E057
:0A241000DF011D928A95E9F7C8CF9D
:10241A0057726974652064657669636520666169C7
:10242A006C65640A004461746120726561642066A7
:07243A0061696C65640A0092
:10244100563A25647C53563A25647C433A25647C8C
:06245100503A25640A0068
:07245700286E756C6C290072
:06245E00286E696C2900E4
:1024640068076C094C836A9074A07AC000806888FD
:0624740000846C8200816F
:01247A000160
:00000001FF
